{
  "contractName": "Loteria",
  "abi": [
    {
      "inputs": [],
      "stateMutability": "nonpayable",
      "type": "constructor"
    },
    {
      "anonymous": false,
      "inputs": [
        {
          "indexed": true,
          "internalType": "address",
          "name": "owner",
          "type": "address"
        },
        {
          "indexed": true,
          "internalType": "address",
          "name": "spender",
          "type": "address"
        },
        {
          "indexed": false,
          "internalType": "uint256",
          "name": "value",
          "type": "uint256"
        }
      ],
      "name": "Approval",
      "type": "event"
    },
    {
      "anonymous": false,
      "inputs": [
        {
          "indexed": true,
          "internalType": "address",
          "name": "previousOwner",
          "type": "address"
        },
        {
          "indexed": true,
          "internalType": "address",
          "name": "newOwner",
          "type": "address"
        }
      ],
      "name": "OwnershipTransferred",
      "type": "event"
    },
    {
      "anonymous": false,
      "inputs": [
        {
          "indexed": true,
          "internalType": "address",
          "name": "from",
          "type": "address"
        },
        {
          "indexed": true,
          "internalType": "address",
          "name": "to",
          "type": "address"
        },
        {
          "indexed": false,
          "internalType": "uint256",
          "name": "value",
          "type": "uint256"
        }
      ],
      "name": "Transfer",
      "type": "event"
    },
    {
      "inputs": [
        {
          "internalType": "address",
          "name": "owner",
          "type": "address"
        },
        {
          "internalType": "address",
          "name": "spender",
          "type": "address"
        }
      ],
      "name": "allowance",
      "outputs": [
        {
          "internalType": "uint256",
          "name": "",
          "type": "uint256"
        }
      ],
      "stateMutability": "view",
      "type": "function",
      "constant": true
    },
    {
      "inputs": [
        {
          "internalType": "address",
          "name": "spender",
          "type": "address"
        },
        {
          "internalType": "uint256",
          "name": "amount",
          "type": "uint256"
        }
      ],
      "name": "approve",
      "outputs": [
        {
          "internalType": "bool",
          "name": "",
          "type": "bool"
        }
      ],
      "stateMutability": "nonpayable",
      "type": "function"
    },
    {
      "inputs": [
        {
          "internalType": "address",
          "name": "account",
          "type": "address"
        }
      ],
      "name": "balanceOf",
      "outputs": [
        {
          "internalType": "uint256",
          "name": "",
          "type": "uint256"
        }
      ],
      "stateMutability": "view",
      "type": "function",
      "constant": true
    },
    {
      "inputs": [],
      "name": "decimals",
      "outputs": [
        {
          "internalType": "uint8",
          "name": "",
          "type": "uint8"
        }
      ],
      "stateMutability": "view",
      "type": "function",
      "constant": true
    },
    {
      "inputs": [
        {
          "internalType": "address",
          "name": "spender",
          "type": "address"
        },
        {
          "internalType": "uint256",
          "name": "subtractedValue",
          "type": "uint256"
        }
      ],
      "name": "decreaseAllowance",
      "outputs": [
        {
          "internalType": "bool",
          "name": "",
          "type": "bool"
        }
      ],
      "stateMutability": "nonpayable",
      "type": "function"
    },
    {
      "inputs": [],
      "name": "ganador",
      "outputs": [
        {
          "internalType": "address",
          "name": "",
          "type": "address"
        }
      ],
      "stateMutability": "view",
      "type": "function",
      "constant": true
    },
    {
      "inputs": [
        {
          "internalType": "address",
          "name": "spender",
          "type": "address"
        },
        {
          "internalType": "uint256",
          "name": "addedValue",
          "type": "uint256"
        }
      ],
      "name": "increaseAllowance",
      "outputs": [
        {
          "internalType": "bool",
          "name": "",
          "type": "bool"
        }
      ],
      "stateMutability": "nonpayable",
      "type": "function"
    },
    {
      "inputs": [],
      "name": "name",
      "outputs": [
        {
          "internalType": "string",
          "name": "",
          "type": "string"
        }
      ],
      "stateMutability": "view",
      "type": "function",
      "constant": true
    },
    {
      "inputs": [],
      "name": "nft",
      "outputs": [
        {
          "internalType": "address",
          "name": "",
          "type": "address"
        }
      ],
      "stateMutability": "view",
      "type": "function",
      "constant": true
    },
    {
      "inputs": [],
      "name": "owner",
      "outputs": [
        {
          "internalType": "address",
          "name": "",
          "type": "address"
        }
      ],
      "stateMutability": "view",
      "type": "function",
      "constant": true
    },
    {
      "inputs": [],
      "name": "precioBoleto",
      "outputs": [
        {
          "internalType": "uint256",
          "name": "",
          "type": "uint256"
        }
      ],
      "stateMutability": "view",
      "type": "function",
      "constant": true
    },
    {
      "inputs": [],
      "name": "renounceOwnership",
      "outputs": [],
      "stateMutability": "nonpayable",
      "type": "function"
    },
    {
      "inputs": [],
      "name": "symbol",
      "outputs": [
        {
          "internalType": "string",
          "name": "",
          "type": "string"
        }
      ],
      "stateMutability": "view",
      "type": "function",
      "constant": true
    },
    {
      "inputs": [],
      "name": "totalSupply",
      "outputs": [
        {
          "internalType": "uint256",
          "name": "",
          "type": "uint256"
        }
      ],
      "stateMutability": "view",
      "type": "function",
      "constant": true
    },
    {
      "inputs": [
        {
          "internalType": "address",
          "name": "to",
          "type": "address"
        },
        {
          "internalType": "uint256",
          "name": "amount",
          "type": "uint256"
        }
      ],
      "name": "transfer",
      "outputs": [
        {
          "internalType": "bool",
          "name": "",
          "type": "bool"
        }
      ],
      "stateMutability": "nonpayable",
      "type": "function"
    },
    {
      "inputs": [
        {
          "internalType": "address",
          "name": "from",
          "type": "address"
        },
        {
          "internalType": "address",
          "name": "to",
          "type": "address"
        },
        {
          "internalType": "uint256",
          "name": "amount",
          "type": "uint256"
        }
      ],
      "name": "transferFrom",
      "outputs": [
        {
          "internalType": "bool",
          "name": "",
          "type": "bool"
        }
      ],
      "stateMutability": "nonpayable",
      "type": "function"
    },
    {
      "inputs": [
        {
          "internalType": "address",
          "name": "newOwner",
          "type": "address"
        }
      ],
      "name": "transferOwnership",
      "outputs": [],
      "stateMutability": "nonpayable",
      "type": "function"
    },
    {
      "inputs": [
        {
          "internalType": "address",
          "name": "",
          "type": "address"
        }
      ],
      "name": "usuarioContract",
      "outputs": [
        {
          "internalType": "address",
          "name": "",
          "type": "address"
        }
      ],
      "stateMutability": "view",
      "type": "function",
      "constant": true
    },
    {
      "inputs": [
        {
          "internalType": "address",
          "name": "_account",
          "type": "address"
        }
      ],
      "name": "balanceTokens",
      "outputs": [
        {
          "internalType": "uint256",
          "name": "",
          "type": "uint256"
        }
      ],
      "stateMutability": "view",
      "type": "function",
      "constant": true
    },
    {
      "inputs": [],
      "name": "balanceTokensSC",
      "outputs": [
        {
          "internalType": "uint256",
          "name": "",
          "type": "uint256"
        }
      ],
      "stateMutability": "view",
      "type": "function",
      "constant": true
    },
    {
      "inputs": [],
      "name": "balanceEthersSC",
      "outputs": [
        {
          "internalType": "uint256",
          "name": "",
          "type": "uint256"
        }
      ],
      "stateMutability": "view",
      "type": "function",
      "constant": true
    },
    {
      "inputs": [
        {
          "internalType": "uint256",
          "name": "_numTokens",
          "type": "uint256"
        }
      ],
      "name": "mint",
      "outputs": [],
      "stateMutability": "nonpayable",
      "type": "function"
    },
    {
      "inputs": [
        {
          "internalType": "address",
          "name": "_account",
          "type": "address"
        }
      ],
      "name": "userInfo",
      "outputs": [
        {
          "internalType": "address",
          "name": "",
          "type": "address"
        }
      ],
      "stateMutability": "view",
      "type": "function",
      "constant": true
    },
    {
      "inputs": [
        {
          "internalType": "uint256",
          "name": "_numTokens",
          "type": "uint256"
        }
      ],
      "name": "compraTokens",
      "outputs": [],
      "stateMutability": "payable",
      "type": "function",
      "payable": true
    },
    {
      "inputs": [
        {
          "internalType": "uint256",
          "name": "_numTokens",
          "type": "uint256"
        }
      ],
      "name": "devolverTokens",
      "outputs": [],
      "stateMutability": "payable",
      "type": "function",
      "payable": true
    },
    {
      "inputs": [
        {
          "internalType": "uint256",
          "name": "_numBoletos",
          "type": "uint256"
        }
      ],
      "name": "comprarBoleto",
      "outputs": [],
      "stateMutability": "nonpayable",
      "type": "function"
    },
    {
      "inputs": [
        {
          "internalType": "address",
          "name": "_owner",
          "type": "address"
        }
      ],
      "name": "viewBoletos",
      "outputs": [
        {
          "internalType": "uint256[]",
          "name": "",
          "type": "uint256[]"
        }
      ],
      "stateMutability": "view",
      "type": "function",
      "constant": true
    },
    {
      "inputs": [],
      "name": "generarGanador",
      "outputs": [],
      "stateMutability": "nonpayable",
      "type": "function"
    }
  ],
  "bytecode": "0x608060405260056009556000600c553480156200001b57600080fd5b506040518060400160405280600781526020017f4c6f7465726961000000000000000000000000000000000000000000000000008152506040518060400160405280600381526020017f4c415000000000000000000000000000000000000000000000000000000000008152508160039080519060200190620000a0929190620003b3565b508060049080519060200190620000b9929190620003b3565b505050620000dc620000d06200016260201b60201c565b6200016a60201b60201c565b620000f0306103e86200023060201b60201c565b604051620000fe9062000444565b604051809103906000f0801580156200011b573d6000803e3d6000fd5b50600660006101000a81548173ffffffffffffffffffffffffffffffffffffffff021916908373ffffffffffffffffffffffffffffffffffffffff1602179055506200061d565b600033905090565b6000600560009054906101000a900473ffffffffffffffffffffffffffffffffffffffff16905081600560006101000a81548173ffffffffffffffffffffffffffffffffffffffff021916908373ffffffffffffffffffffffffffffffffffffffff1602179055508173ffffffffffffffffffffffffffffffffffffffff168173ffffffffffffffffffffffffffffffffffffffff167f8be0079c531659141344cd1fd0a4f28419497f9722a3daafe3b4186f6b6457e060405160405180910390a35050565b600073ffffffffffffffffffffffffffffffffffffffff168273ffffffffffffffffffffffffffffffffffffffff161415620002a3576040517f08c379a00000000000000000000000000000000000000000000000000000000081526004016200029a90620004a9565b60405180910390fd5b620002b760008383620003a960201b60201c565b8060026000828254620002cb9190620004f9565b92505081905550806000808473ffffffffffffffffffffffffffffffffffffffff1673ffffffffffffffffffffffffffffffffffffffff1681526020019081526020016000206000828254620003229190620004f9565b925050819055508173ffffffffffffffffffffffffffffffffffffffff16600073ffffffffffffffffffffffffffffffffffffffff167fddf252ad1be2c89b69c2b068fc378daa952ba7f163c4a11628f55a4df523b3ef83604051620003899190620004cb565b60405180910390a3620003a560008383620003ae60201b60201c565b5050565b505050565b505050565b828054620003c19062000560565b90600052602060002090601f016020900481019282620003e5576000855562000431565b82601f106200040057805160ff191683800117855562000431565b8280016001018555821562000431579182015b828111156200043057825182559160200191906001019062000413565b5b50905062000440919062000452565b5090565b612b8c8062003e9683390190565b5b808211156200046d57600081600090555060010162000453565b5090565b600062000480601f83620004e8565b91506200048d82620005f4565b602082019050919050565b620004a38162000556565b82525050565b60006020820190508181036000830152620004c48162000471565b9050919050565b6000602082019050620004e2600083018462000498565b92915050565b600082825260208201905092915050565b6000620005068262000556565b9150620005138362000556565b9250827fffffffffffffffffffffffffffffffffffffffffffffffffffffffffffffffff038211156200054b576200054a62000596565b5b828201905092915050565b6000819050919050565b600060028204905060018216806200057957607f821691505b6020821081141562000590576200058f620005c5565b5b50919050565b7f4e487b7100000000000000000000000000000000000000000000000000000000600052601160045260246000fd5b7f4e487b7100000000000000000000000000000000000000000000000000000000600052602260045260246000fd5b7f45524332303a206d696e7420746f20746865207a65726f206164647265737300600082015250565b613869806200062d6000396000f3fe608060405260043610620001e25760003560e01c80639114bde81162000103578063b934c3841162000097578063ee5ade83116200006d578063ee5ade8314620006cb578063effdcfbf14620006fb578063f2fde38b146200073f578063f9b4527a146200076d57620001e2565b8063b934c3841462000637578063c29dd7c91462000667578063dd62ed3e146200068757620001e2565b80639d682a6e11620000d95780639d682a6e146200053d578063a0712d681462000581578063a457c2d714620005af578063a9059cbb14620005f357620001e2565b80639114bde814620004ad57806392ef10d814620004dd57806395d89b41146200050d57620001e2565b806339509351116200017b578063715018a61162000151578063715018a6146200041b5780637f30e11c146200043557806389e25c2814620004635780638da5cb5b146200047d57620001e2565b806339509351146200036357806347ccca0214620003a757806370a0823114620003d757620001e2565b80631959a00211620001bd5780631959a002146200028b57806323b872dd14620002cf5780632e95161c1462000313578063313ce567146200033357620001e2565b806306fdde0314620001e7578063095ea7b3146200021757806318160ddd146200025b575b600080fd5b348015620001f457600080fd5b50620001ff620007b1565b6040516200020e9190620026c6565b60405180910390f35b3480156200022457600080fd5b506200024360048036038101906200023d919062002171565b6200084b565b604051620002529190620026a9565b60405180910390f35b3480156200026857600080fd5b506200027362000872565b6040516200028291906200290a565b60405180910390f35b3480156200029857600080fd5b50620002b76004803603810190620002b19190620020ae565b6200087c565b604051620002c69190620025fe565b60405180910390f35b348015620002dc57600080fd5b50620002fb6004803603810190620002f591906200211b565b620008e5565b6040516200030a9190620026a9565b60405180910390f35b6200033160048036038101906200032b9190620021b2565b6200091a565b005b3480156200034057600080fd5b506200034b62000a12565b6040516200035a919062002927565b60405180910390f35b3480156200037057600080fd5b506200038f600480360381019062000389919062002171565b62000a1b565b6040516200039e9190620026a9565b60405180910390f35b348015620003b457600080fd5b50620003bf62000acb565b604051620003ce9190620025fe565b60405180910390f35b348015620003e457600080fd5b50620004036004803603810190620003fd9190620020ae565b62000af1565b6040516200041291906200290a565b60405180910390f35b3480156200042857600080fd5b506200043362000b39565b005b3480156200044257600080fd5b506200046160048036038101906200045b9190620021b2565b62000bca565b005b3480156200047057600080fd5b506200047b62000c4a565b005b3480156200048a57600080fd5b506200049562000f10565b604051620004a49190620025fe565b60405180910390f35b348015620004ba57600080fd5b50620004c562000f3a565b604051620004d49190620025fe565b60405180910390f35b348015620004ea57600080fd5b50620004f562000f60565b6040516200050491906200290a565b60405180910390f35b3480156200051a57600080fd5b506200052562000f72565b604051620005349190620026c6565b60405180910390f35b3480156200054a57600080fd5b50620005696004803603810190620005639190620020ae565b6200100c565b60405162000578919062002685565b60405180910390f35b3480156200058e57600080fd5b50620005ad6004803603810190620005a79190620021b2565b620010a5565b005b348015620005bc57600080fd5b50620005db6004803603810190620005d5919062002171565b62001137565b604051620005ea9190620026a9565b60405180910390f35b3480156200060057600080fd5b506200061f600480360381019062000619919062002171565b62001228565b6040516200062e9190620026a9565b60405180910390f35b3480156200064457600080fd5b506200064f6200124f565b6040516200065e91906200290a565b60405180910390f35b6200068560048036038101906200067f9190620021b2565b6200126c565b005b3480156200069457600080fd5b50620006b36004803603810190620006ad9190620020da565b62001422565b604051620006c291906200290a565b60405180910390f35b348015620006d857600080fd5b50620006e3620014a9565b604051620006f291906200290a565b60405180910390f35b3480156200070857600080fd5b50620007276004803603810190620007219190620020ae565b620014af565b604051620007369190620025fe565b60405180910390f35b3480156200074c57600080fd5b506200076b6004803603810190620007659190620020ae565b620014e2565b005b3480156200077a57600080fd5b50620007996004803603810190620007939190620020ae565b620015e6565b604051620007a891906200290a565b60405180910390f35b606060038054620007c29062002b57565b80601f0160208091040260200160405190810160405280929190818152602001828054620007f09062002b57565b8015620008415780601f10620008155761010080835404028352916020019162000841565b820191906000526020600020905b8154815290600101906020018083116200082357829003601f168201915b5050505050905090565b60008062000858620015fa565b90506200086781858562001602565b600191505092915050565b6000600254905090565b6000600860008373ffffffffffffffffffffffffffffffffffffffff1673ffffffffffffffffffffffffffffffffffffffff16815260200190815260200160002060009054906101000a900473ffffffffffffffffffffffffffffffffffffffff169050919050565b600080620008f2620015fa565b905062000901858285620017d5565b6200090e85858562001869565b60019150509392505050565b6000811162000960576040517f08c379a0000000000000000000000000000000000000000000000000000000008152600401620009579062002794565b60405180910390fd5b6200096b33620015e6565b811115620009b0576040517f08c379a0000000000000000000000000000000000000000000000000000000008152600401620009a790620028a4565b60405180910390fd5b620009bd33308362001869565b3373ffffffffffffffffffffffffffffffffffffffff166108fc620009e28362001afb565b9081150290604051600060405180830381858888f1935050505015801562000a0e573d6000803e3d6000fd5b5050565b60006012905090565b60008062000a28620015fa565b905062000ac0818585600160008673ffffffffffffffffffffffffffffffffffffffff1673ffffffffffffffffffffffffffffffffffffffff16815260200190815260200160002060008973ffffffffffffffffffffffffffffffffffffffff1673ffffffffffffffffffffffffffffffffffffffff1681526020019081526020016000205462000aba919062002999565b62001602565b600191505092915050565b600660009054906101000a900473ffffffffffffffffffffffffffffffffffffffff1681565b60008060008373ffffffffffffffffffffffffffffffffffffffff1673ffffffffffffffffffffffffffffffffffffffff168152602001908152602001600020549050919050565b62000b43620015fa565b73ffffffffffffffffffffffffffffffffffffffff1662000b6362000f10565b73ffffffffffffffffffffffffffffffffffffffff161462000bbc576040517f08c379a000000000000000000000000000000000000000000000000000000000815260040162000bb3906200281c565b60405180910390fd5b62000bc8600062001b1a565b565b60006009548262000bdc919062002a2e565b905062000be933620015e6565b81111562000c2e576040517f08c379a000000000000000000000000000000000000000000000000000000000815260040162000c259062002772565b60405180910390fd5b62000c3b33308362001869565b62000c468262001be0565b5050565b62000c54620015fa565b73ffffffffffffffffffffffffffffffffffffffff1662000c7462000f10565b73ffffffffffffffffffffffffffffffffffffffff161462000ccd576040517f08c379a000000000000000000000000000000000000000000000000000000000815260040162000cc4906200281c565b60405180910390fd5b6000600d8054905090506000811162000d1d576040517f08c379a000000000000000000000000000000000000000000000000000000000815260040162000d1490620027d8565b60405180910390fd5b6000814260405160200162000d3391906200259e565b6040516020818303038152906040528051906020012060001c62000d58919062002c0d565b90506000600d828154811062000d97577f4e487b7100000000000000000000000000000000000000000000000000000000600052603260045260246000fd5b90600052602060002001549050600b600082815260200190815260200160002060009054906101000a900473ffffffffffffffffffffffffffffffffffffffff16600760006101000a81548173ffffffffffffffffffffffffffffffffffffffff021916908373ffffffffffffffffffffffffffffffffffffffff160217905550600760009054906101000a900473ffffffffffffffffffffffffffffffffffffffff1673ffffffffffffffffffffffffffffffffffffffff166108fc6064605f4762000e65919062002a2e565b62000e719190620029f6565b9081150290604051600060405180830381858888f1935050505015801562000e9d573d6000803e3d6000fd5b5062000ea862000f10565b73ffffffffffffffffffffffffffffffffffffffff166108fc606460054762000ed2919062002a2e565b62000ede9190620029f6565b9081150290604051600060405180830381858888f1935050505015801562000f0a573d6000803e3d6000fd5b50505050565b6000600560009054906101000a900473ffffffffffffffffffffffffffffffffffffffff16905090565b600760009054906101000a900473ffffffffffffffffffffffffffffffffffffffff1681565b600062000f6d3062000af1565b905090565b60606004805462000f839062002b57565b80601f016020809104026020016040519081016040528092919081815260200182805462000fb19062002b57565b8015620010025780601f1062000fd65761010080835404028352916020019162001002565b820191906000526020600020905b81548152906001019060200180831162000fe457829003601f168201915b5050505050905090565b6060600a60008373ffffffffffffffffffffffffffffffffffffffff1673ffffffffffffffffffffffffffffffffffffffff1681526020019081526020016000208054806020026020016040519081016040528092919081815260200182805480156200109957602002820191906000526020600020905b81548152602001906001019080831162001084575b50505050509050919050565b620010af620015fa565b73ffffffffffffffffffffffffffffffffffffffff16620010cf62000f10565b73ffffffffffffffffffffffffffffffffffffffff161462001128576040517f08c379a00000000000000000000000000000000000000000000000000000000081526004016200111f906200281c565b60405180910390fd5b62001134308262001e17565b50565b60008062001144620015fa565b90506000600160008373ffffffffffffffffffffffffffffffffffffffff1673ffffffffffffffffffffffffffffffffffffffff16815260200190815260200160002060008673ffffffffffffffffffffffffffffffffffffffff1673ffffffffffffffffffffffffffffffffffffffff168152602001908152602001600020549050838110156200120d576040517f08c379a00000000000000000000000000000000000000000000000000000000081526004016200120490620028c6565b60405180910390fd5b6200121c828686840362001602565b60019250505092915050565b60008062001235620015fa565b90506200124481858562001869565b600191505092915050565b6000670de0b6b3a764000047620012679190620029f6565b905090565b600073ffffffffffffffffffffffffffffffffffffffff16600860003373ffffffffffffffffffffffffffffffffffffffff1673ffffffffffffffffffffffffffffffffffffffff16815260200190815260200160002060009054906101000a900473ffffffffffffffffffffffffffffffffffffffff1673ffffffffffffffffffffffffffffffffffffffff1614156200130c576200130b62001f84565b5b6000620013198262001afb565b90508034101562001361576040517f08c379a0000000000000000000000000000000000000000000000000000000008152600401620013589062002882565b60405180910390fd5b60006200136d62000f60565b905080831115620013b5576040517f08c379a0000000000000000000000000000000000000000000000000000000008152600401620013ac90620027fa565b60405180910390fd5b60008234620013c5919062002a8f565b90503373ffffffffffffffffffffffffffffffffffffffff166108fc829081150290604051600060405180830381858888f193505050501580156200140e573d6000803e3d6000fd5b506200141c30338662001869565b50505050565b6000600160008473ffffffffffffffffffffffffffffffffffffffff1673ffffffffffffffffffffffffffffffffffffffff16815260200190815260200160002060008373ffffffffffffffffffffffffffffffffffffffff1673ffffffffffffffffffffffffffffffffffffffff16815260200190815260200160002054905092915050565b60095481565b60086020528060005260406000206000915054906101000a900473ffffffffffffffffffffffffffffffffffffffff1681565b620014ec620015fa565b73ffffffffffffffffffffffffffffffffffffffff166200150c62000f10565b73ffffffffffffffffffffffffffffffffffffffff161462001565576040517f08c379a00000000000000000000000000000000000000000000000000000000081526004016200155c906200281c565b60405180910390fd5b600073ffffffffffffffffffffffffffffffffffffffff168173ffffffffffffffffffffffffffffffffffffffff161415620015d8576040517f08c379a0000000000000000000000000000000000000000000000000000000008152600401620015cf906200270c565b60405180910390fd5b620015e38162001b1a565b50565b6000620015f38262000af1565b9050919050565b600033905090565b600073ffffffffffffffffffffffffffffffffffffffff168373ffffffffffffffffffffffffffffffffffffffff16141562001675576040517f08c379a00000000000000000000000000000000000000000000000000000000081526004016200166c9062002860565b60405180910390fd5b600073ffffffffffffffffffffffffffffffffffffffff168273ffffffffffffffffffffffffffffffffffffffff161415620016e8576040517f08c379a0000000000000000000000000000000000000000000000000000000008152600401620016df906200272e565b60405180910390fd5b80600160008573ffffffffffffffffffffffffffffffffffffffff1673ffffffffffffffffffffffffffffffffffffffff16815260200190815260200160002060008473ffffffffffffffffffffffffffffffffffffffff1673ffffffffffffffffffffffffffffffffffffffff168152602001908152602001600020819055508173ffffffffffffffffffffffffffffffffffffffff168373ffffffffffffffffffffffffffffffffffffffff167f8c5be1e5ebec7d5bd14f71427d1e84f3dd0314c0f7b2291e5b200ac8c7c3b92583604051620017c891906200290a565b60405180910390a3505050565b6000620017e3848462001422565b90507fffffffffffffffffffffffffffffffffffffffffffffffffffffffffffffffff811462001863578181101562001853576040517f08c379a00000000000000000000000000000000000000000000000000000000081526004016200184a9062002750565b60405180910390fd5b62001862848484840362001602565b5b50505050565b600073ffffffffffffffffffffffffffffffffffffffff168373ffffffffffffffffffffffffffffffffffffffff161415620018dc576040517f08c379a0000000000000000000000000000000000000000000000000000000008152600401620018d3906200283e565b60405180910390fd5b600073ffffffffffffffffffffffffffffffffffffffff168273ffffffffffffffffffffffffffffffffffffffff1614156200194f576040517f08c379a00000000000000000000000000000000000000000000000000000000081526004016200194690620026ea565b60405180910390fd5b6200195c83838362002068565b60008060008573ffffffffffffffffffffffffffffffffffffffff1673ffffffffffffffffffffffffffffffffffffffff16815260200190815260200160002054905081811015620019e5576040517f08c379a0000000000000000000000000000000000000000000000000000000008152600401620019dc90620027b6565b60405180910390fd5b8181036000808673ffffffffffffffffffffffffffffffffffffffff1673ffffffffffffffffffffffffffffffffffffffff16815260200190815260200160002081905550816000808573ffffffffffffffffffffffffffffffffffffffff1673ffffffffffffffffffffffffffffffffffffffff168152602001908152602001600020600082825462001a7a919062002999565b925050819055508273ffffffffffffffffffffffffffffffffffffffff168473ffffffffffffffffffffffffffffffffffffffff167fddf252ad1be2c89b69c2b068fc378daa952ba7f163c4a11628f55a4df523b3ef8460405162001ae091906200290a565b60405180910390a362001af58484846200206d565b50505050565b6000670de0b6b3a76400008262001b13919062002a2e565b9050919050565b6000600560009054906101000a900473ffffffffffffffffffffffffffffffffffffffff16905081600560006101000a81548173ffffffffffffffffffffffffffffffffffffffff021916908373ffffffffffffffffffffffffffffffffffffffff1602179055508173ffffffffffffffffffffffffffffffffffffffff168173ffffffffffffffffffffffffffffffffffffffff167f8be0079c531659141344cd1fd0a4f28419497f9722a3daafe3b4186f6b6457e060405160405180910390a35050565b60005b8181101562001e135760006127104233600c5460405160200162001c0a93929190620025bb565b6040516020818303038152906040528051906020012060001c62001c2f919062002c0d565b9050600c600081548092919062001c469062002b8d565b9190505550600a60003373ffffffffffffffffffffffffffffffffffffffff1673ffffffffffffffffffffffffffffffffffffffff168152602001908152602001600020819080600181540180825580915050600190039060005260206000200160009091909190915055600d81908060018154018082558091505060019003906000526020600020016000909190919091505533600b600083815260200190815260200160002060006101000a81548173ffffffffffffffffffffffffffffffffffffffff021916908373ffffffffffffffffffffffffffffffffffffffff160217905550600860003373ffffffffffffffffffffffffffffffffffffffff1673ffffffffffffffffffffffffffffffffffffffff16815260200190815260200160002060009054906101000a900473ffffffffffffffffffffffffffffffffffffffff1673ffffffffffffffffffffffffffffffffffffffff1663120e852333836040518363ffffffff1660e01b815260040162001dc892919062002658565b600060405180830381600087803b15801562001de357600080fd5b505af115801562001df8573d6000803e3d6000fd5b5050505050808062001e0a9062002b8d565b91505062001be3565b5050565b600073ffffffffffffffffffffffffffffffffffffffff168273ffffffffffffffffffffffffffffffffffffffff16141562001e8a576040517f08c379a000000000000000000000000000000000000000000000000000000000815260040162001e8190620028e8565b60405180910390fd5b62001e986000838362002068565b806002600082825462001eac919062002999565b92505081905550806000808473ffffffffffffffffffffffffffffffffffffffff1673ffffffffffffffffffffffffffffffffffffffff168152602001908152602001600020600082825462001f03919062002999565b925050819055508173ffffffffffffffffffffffffffffffffffffffff16600073ffffffffffffffffffffffffffffffffffffffff167fddf252ad1be2c89b69c2b068fc378daa952ba7f163c4a11628f55a4df523b3ef8360405162001f6a91906200290a565b60405180910390a362001f80600083836200206d565b5050565b60003330600660009054906101000a900473ffffffffffffffffffffffffffffffffffffffff1660405162001fb99062002072565b62001fc7939291906200261b565b604051809103906000f08015801562001fe4573d6000803e3d6000fd5b50905080600860003373ffffffffffffffffffffffffffffffffffffffff1673ffffffffffffffffffffffffffffffffffffffff16815260200190815260200160002060006101000a81548173ffffffffffffffffffffffffffffffffffffffff021916908373ffffffffffffffffffffffffffffffffffffffff16021790555050565b505050565b505050565b610703806200313183390190565b6000813590506200209181620030fc565b92915050565b600081359050620020a88162003116565b92915050565b600060208284031215620020c157600080fd5b6000620020d18482850162002080565b91505092915050565b60008060408385031215620020ee57600080fd5b6000620020fe8582860162002080565b9250506020620021118582860162002080565b9150509250929050565b6000806000606084860312156200213157600080fd5b6000620021418682870162002080565b9350506020620021548682870162002080565b9250506040620021678682870162002097565b9150509250925092565b600080604083850312156200218557600080fd5b6000620021958582860162002080565b9250506020620021a88582860162002097565b9150509250929050565b600060208284031215620021c557600080fd5b6000620021d58482850162002097565b91505092915050565b6000620021ec838362002550565b60208301905092915050565b620022038162002aca565b82525050565b6200221e620022188262002aca565b62002bdb565b82525050565b6000620022318262002954565b6200223d818562002977565b93506200224a8362002944565b8060005b8381101562002281578151620022658882620021de565b975062002272836200296a565b9250506001810190506200224e565b5085935050505092915050565b620022998162002ade565b82525050565b6000620022ac826200295f565b620022b8818562002988565b9350620022ca81856020860162002b21565b620022d58162002cd2565b840191505092915050565b6000620022ef60238362002988565b9150620022fc8262002cf0565b604082019050919050565b60006200231660268362002988565b9150620023238262002d3f565b604082019050919050565b60006200233d60228362002988565b91506200234a8262002d8e565b604082019050919050565b600062002364601d8362002988565b9150620023718262002ddd565b602082019050919050565b60006200238b601c8362002988565b9150620023988262002e06565b602082019050919050565b6000620023b260308362002988565b9150620023bf8262002e2f565b604082019050919050565b6000620023d960268362002988565b9150620023e68262002e7e565b604082019050919050565b60006200240060188362002988565b91506200240d8262002ecd565b602082019050919050565b60006200242760208362002988565b9150620024348262002ef6565b602082019050919050565b60006200244e60208362002988565b91506200245b8262002f1f565b602082019050919050565b60006200247560258362002988565b9150620024828262002f48565b604082019050919050565b60006200249c60248362002988565b9150620024a98262002f97565b604082019050919050565b6000620024c360298362002988565b9150620024d08262002fe6565b604082019050919050565b6000620024ea60288362002988565b9150620024f78262003035565b604082019050919050565b60006200251160258362002988565b91506200251e8262003084565b604082019050919050565b600062002538601f8362002988565b91506200254582620030d3565b602082019050919050565b6200255b8162002b0a565b82525050565b6200256c8162002b0a565b82525050565b62002587620025818262002b0a565b62002c03565b82525050565b620025988162002b14565b82525050565b6000620025ac828462002572565b60208201915081905092915050565b6000620025c9828662002572565b602082019150620025db828562002209565b601482019150620025ed828462002572565b602082019150819050949350505050565b6000602082019050620026156000830184620021f8565b92915050565b6000606082019050620026326000830186620021f8565b620026416020830185620021f8565b620026506040830184620021f8565b949350505050565b60006040820190506200266f6000830185620021f8565b6200267e602083018462002561565b9392505050565b60006020820190508181036000830152620026a1818462002224565b905092915050565b6000602082019050620026c060008301846200228e565b92915050565b60006020820190508181036000830152620026e281846200229f565b905092915050565b600060208201905081810360008301526200270581620022e0565b9050919050565b60006020820190508181036000830152620027278162002307565b9050919050565b6000602082019050818103600083015262002749816200232e565b9050919050565b600060208201905081810360008301526200276b8162002355565b9050919050565b600060208201905081810360008301526200278d816200237c565b9050919050565b60006020820190508181036000830152620027af81620023a3565b9050919050565b60006020820190508181036000830152620027d181620023ca565b9050919050565b60006020820190508181036000830152620027f381620023f1565b9050919050565b60006020820190508181036000830152620028158162002418565b9050919050565b6000602082019050818103600083015262002837816200243f565b9050919050565b60006020820190508181036000830152620028598162002466565b9050919050565b600060208201905081810360008301526200287b816200248d565b9050919050565b600060208201905081810360008301526200289d81620024b4565b9050919050565b60006020820190508181036000830152620028bf81620024db565b9050919050565b60006020820190508181036000830152620028e18162002502565b9050919050565b60006020820190508181036000830152620029038162002529565b9050919050565b600060208201905062002921600083018462002561565b92915050565b60006020820190506200293e60008301846200258d565b92915050565b6000819050602082019050919050565b600081519050919050565b600081519050919050565b6000602082019050919050565b600082825260208201905092915050565b600082825260208201905092915050565b6000620029a68262002b0a565b9150620029b38362002b0a565b9250827fffffffffffffffffffffffffffffffffffffffffffffffffffffffffffffffff03821115620029eb57620029ea62002c45565b5b828201905092915050565b600062002a038262002b0a565b915062002a108362002b0a565b92508262002a235762002a2262002c74565b5b828204905092915050565b600062002a3b8262002b0a565b915062002a488362002b0a565b9250817fffffffffffffffffffffffffffffffffffffffffffffffffffffffffffffffff048311821515161562002a845762002a8362002c45565b5b828202905092915050565b600062002a9c8262002b0a565b915062002aa98362002b0a565b92508282101562002abf5762002abe62002c45565b5b828203905092915050565b600062002ad78262002aea565b9050919050565b60008115159050919050565b600073ffffffffffffffffffffffffffffffffffffffff82169050919050565b6000819050919050565b600060ff82169050919050565b60005b8381101562002b4157808201518184015260208101905062002b24565b8381111562002b51576000848401525b50505050565b6000600282049050600182168062002b7057607f821691505b6020821081141562002b875762002b8662002ca3565b5b50919050565b600062002b9a8262002b0a565b91507fffffffffffffffffffffffffffffffffffffffffffffffffffffffffffffffff82141562002bd05762002bcf62002c45565b5b600182019050919050565b600062002be88262002bef565b9050919050565b600062002bfc8262002ce3565b9050919050565b6000819050919050565b600062002c1a8262002b0a565b915062002c278362002b0a565b92508262002c3a5762002c3962002c74565b5b828206905092915050565b7f4e487b7100000000000000000000000000000000000000000000000000000000600052601160045260246000fd5b7f4e487b7100000000000000000000000000000000000000000000000000000000600052601260045260246000fd5b7f4e487b7100000000000000000000000000000000000000000000000000000000600052602260045260246000fd5b6000601f19601f8301169050919050565b60008160601b9050919050565b7f45524332303a207472616e7366657220746f20746865207a65726f206164647260008201527f6573730000000000000000000000000000000000000000000000000000000000602082015250565b7f4f776e61626c653a206e6577206f776e657220697320746865207a65726f206160008201527f6464726573730000000000000000000000000000000000000000000000000000602082015250565b7f45524332303a20617070726f766520746f20746865207a65726f20616464726560008201527f7373000000000000000000000000000000000000000000000000000000000000602082015250565b7f45524332303a20696e73756666696369656e7420616c6c6f77616e6365000000600082015250565b7f4e6f207469656e657320746f6b656e7320737566696369656e74657300000000600082015250565b7f4e6563657369746173206465766f6c76657220756e206e756d65726f2064652060008201527f746f6b656e73206d61796f722061203000000000000000000000000000000000602082015250565b7f45524332303a207472616e7366657220616d6f756e742065786365656473206260008201527f616c616e63650000000000000000000000000000000000000000000000000000602082015250565b7f4e6f2068617920626f6c65746f7320636f6d707261646f730000000000000000600082015250565b7f436f6d70726120756e206e756d65726f206d656e6f7220646520746f6b656e73600082015250565b7f4f776e61626c653a2063616c6c6572206973206e6f7420746865206f776e6572600082015250565b7f45524332303a207472616e736665722066726f6d20746865207a65726f20616460008201527f6472657373000000000000000000000000000000000000000000000000000000602082015250565b7f45524332303a20617070726f76652066726f6d20746865207a65726f2061646460008201527f7265737300000000000000000000000000000000000000000000000000000000602082015250565b7f436f6d707261206d656e6f7320746f6b656e73206f207061676120636f6e206d60008201527f6173206574686572730000000000000000000000000000000000000000000000602082015250565b7f4e6f207469656e6573206c6f7320746f6b656e7320717565206465736561732060008201527f6465766f6c766572000000000000000000000000000000000000000000000000602082015250565b7f45524332303a2064656372656173656420616c6c6f77616e63652062656c6f7760008201527f207a65726f000000000000000000000000000000000000000000000000000000602082015250565b7f45524332303a206d696e7420746f20746865207a65726f206164647265737300600082015250565b620031078162002aca565b81146200311357600080fd5b50565b620031218162002b0a565b81146200312d57600080fd5b5056fe608060405234801561001057600080fd5b50604051610703380380610703833981810160405281019061003291906101e8565b60405180608001604052808473ffffffffffffffffffffffffffffffffffffffff1681526020018373ffffffffffffffffffffffffffffffffffffffff1681526020018273ffffffffffffffffffffffffffffffffffffffff1681526020013073ffffffffffffffffffffffffffffffffffffffff168152506000808201518160000160006101000a81548173ffffffffffffffffffffffffffffffffffffffff021916908373ffffffffffffffffffffffffffffffffffffffff16021790555060208201518160010160006101000a81548173ffffffffffffffffffffffffffffffffffffffff021916908373ffffffffffffffffffffffffffffffffffffffff16021790555060408201518160020160006101000a81548173ffffffffffffffffffffffffffffffffffffffff021916908373ffffffffffffffffffffffffffffffffffffffff16021790555060608201518160030160006101000a81548173ffffffffffffffffffffffffffffffffffffffff021916908373ffffffffffffffffffffffffffffffffffffffff160217905550905050505050610280565b6000815190506101e281610269565b92915050565b6000806000606084860312156101fd57600080fd5b600061020b868287016101d3565b935050602061021c868287016101d3565b925050604061022d868287016101d3565b9150509250925092565b600061024282610249565b9050919050565b600073ffffffffffffffffffffffffffffffffffffffff82169050919050565b61027281610237565b811461027d57600080fd5b50565b6104748061028f6000396000f3fe608060405234801561001057600080fd5b50600436106100365760003560e01c8063120e85231461003b5780633c4f81cd14610057575b600080fd5b61005560048036038101906100509190610269565b610078565b005b61005f6101a1565b60405161006f94939291906102e6565b60405180910390f35b3373ffffffffffffffffffffffffffffffffffffffff16600060010160009054906101000a900473ffffffffffffffffffffffffffffffffffffffff1673ffffffffffffffffffffffffffffffffffffffff161461010b576040517f08c379a000000000000000000000000000000000000000000000000000000000815260040161010290610354565b60405180910390fd5b600060020160009054906101000a900473ffffffffffffffffffffffffffffffffffffffff1673ffffffffffffffffffffffffffffffffffffffff1663a144819483836040518363ffffffff1660e01b815260040161016b92919061032b565b600060405180830381600087803b15801561018557600080fd5b505af1158015610199573d6000803e3d6000fd5b505050505050565b60008060000160009054906101000a900473ffffffffffffffffffffffffffffffffffffffff16908060010160009054906101000a900473ffffffffffffffffffffffffffffffffffffffff16908060020160009054906101000a900473ffffffffffffffffffffffffffffffffffffffff16908060030160009054906101000a900473ffffffffffffffffffffffffffffffffffffffff16905084565b60008135905061024e81610410565b92915050565b60008135905061026381610427565b92915050565b6000806040838503121561027c57600080fd5b600061028a8582860161023f565b925050602061029b85828601610254565b9150509250929050565b6102ae81610385565b82525050565b60006102c1602c83610374565b91506102cc826103c1565b604082019050919050565b6102e0816103b7565b82525050565b60006080820190506102fb60008301876102a5565b61030860208301866102a5565b61031560408301856102a5565b61032260608301846102a5565b95945050505050565b600060408201905061034060008301856102a5565b61034d60208301846102d7565b9392505050565b6000602082019050818103600083015261036d816102b4565b9050919050565b600082825260208201905092915050565b600061039082610397565b9050919050565b600073ffffffffffffffffffffffffffffffffffffffff82169050919050565b6000819050919050565b7f4e6f207469656e65207065726d69736f73207061726120656a6563757461722060008201527f657374612066756e63696f6e0000000000000000000000000000000000000000602082015250565b61041981610385565b811461042457600080fd5b50565b610430816103b7565b811461043b57600080fd5b5056fea2646970667358221220c525717d3b1c4c9ea1c65b5922165a603608011d0a7fd76a7454f5c92740546964736f6c63430008040033a2646970667358221220b7636841547ce708e27c5afed64d7637ee81f097ca57c9a2ddd7a366a1d30e2464736f6c6343000804003360806040523480156200001157600080fd5b506040518060400160405280600781526020017f4c6f7465726961000000000000000000000000000000000000000000000000008152506040518060400160405280600381526020017f5354450000000000000000000000000000000000000000000000000000000000815250816000908051906020019062000096929190620000f9565b508060019080519060200190620000af929190620000f9565b50505033600660006101000a81548173ffffffffffffffffffffffffffffffffffffffff021916908373ffffffffffffffffffffffffffffffffffffffff1602179055506200020e565b8280546200010790620001a9565b90600052602060002090601f0160209004810192826200012b576000855562000177565b82601f106200014657805160ff191683800117855562000177565b8280016001018555821562000177579182015b828111156200017657825182559160200191906001019062000159565b5b5090506200018691906200018a565b5090565b5b80821115620001a55760008160009055506001016200018b565b5090565b60006002820490506001821680620001c257607f821691505b60208210811415620001d957620001d8620001df565b5b50919050565b7f4e487b7100000000000000000000000000000000000000000000000000000000600052602260045260246000fd5b61296e806200021e6000396000f3fe608060405234801561001057600080fd5b50600436106100f55760003560e01c80636352211e11610097578063a22cb46511610066578063a22cb46514610284578063b88d4fde146102a0578063c87b56dd146102bc578063e985e9c5146102ec576100f5565b80636352211e146101ea57806370a082311461021a57806395d89b411461024a578063a144819414610268576100f5565b8063095ea7b3116100d3578063095ea7b31461017857806323b872dd1461019457806342842e0e146101b05780635aa0c73d146101cc576100f5565b806301ffc9a7146100fa57806306fdde031461012a578063081812fc14610148575b600080fd5b610114600480360381019061010f9190611ade565b61031c565b6040516101219190611ec1565b60405180910390f35b6101326103fe565b60405161013f9190611edc565b60405180910390f35b610162600480360381019061015d9190611b30565b610490565b60405161016f9190611e5a565b60405180910390f35b610192600480360381019061018d9190611aa2565b610515565b005b6101ae60048036038101906101a9919061199c565b61062d565b005b6101ca60048036038101906101c5919061199c565b61068d565b005b6101d46106ad565b6040516101e19190611e5a565b60405180910390f35b61020460048036038101906101ff9190611b30565b6106d3565b6040516102119190611e5a565b60405180910390f35b610234600480360381019061022f919061190e565b610785565b60405161024191906120de565b60405180910390f35b61025261083d565b60405161025f9190611edc565b60405180910390f35b610282600480360381019061027d9190611aa2565b6108cf565b005b61029e60048036038101906102999190611a66565b6109f5565b005b6102ba60048036038101906102b591906119eb565b610a0b565b005b6102d660048036038101906102d19190611b30565b610a6d565b6040516102e39190611edc565b60405180910390f35b61030660048036038101906103019190611960565b610b14565b6040516103139190611ec1565b60405180910390f35b60007f80ac58cd000000000000000000000000000000000000000000000000000000007bffffffffffffffffffffffffffffffffffffffffffffffffffffffff1916827bffffffffffffffffffffffffffffffffffffffffffffffffffffffff191614806103e757507f5b5e139f000000000000000000000000000000000000000000000000000000007bffffffffffffffffffffffffffffffffffffffffffffffffffffffff1916827bffffffffffffffffffffffffffffffffffffffffffffffffffffffff1916145b806103f757506103f682610ba8565b5b9050919050565b60606000805461040d90612303565b80601f016020809104026020016040519081016040528092919081815260200182805461043990612303565b80156104865780601f1061045b57610100808354040283529160200191610486565b820191906000526020600020905b81548152906001019060200180831161046957829003601f168201915b5050505050905090565b600061049b82610c12565b6104da576040517f08c379a00000000000000000000000000000000000000000000000000000000081526004016104d19061203e565b60405180910390fd5b6004600083815260200190815260200160002060009054906101000a900473ffffffffffffffffffffffffffffffffffffffff169050919050565b6000610520826106d3565b90508073ffffffffffffffffffffffffffffffffffffffff168373ffffffffffffffffffffffffffffffffffffffff161415610591576040517f08c379a00000000000000000000000000000000000000000000000000000000081526004016105889061209e565b60405180910390fd5b8073ffffffffffffffffffffffffffffffffffffffff166105b0610c7e565b73ffffffffffffffffffffffffffffffffffffffff1614806105df57506105de816105d9610c7e565b610b14565b5b61061e576040517f08c379a000000000000000000000000000000000000000000000000000000000815260040161061590611fbe565b60405180910390fd5b6106288383610c86565b505050565b61063e610638610c7e565b82610d3f565b61067d576040517f08c379a0000000000000000000000000000000000000000000000000000000008152600401610674906120be565b60405180910390fd5b610688838383610e1d565b505050565b6106a883838360405180602001604052806000815250610a0b565b505050565b600660009054906101000a900473ffffffffffffffffffffffffffffffffffffffff1681565b6000806002600084815260200190815260200160002060009054906101000a900473ffffffffffffffffffffffffffffffffffffffff169050600073ffffffffffffffffffffffffffffffffffffffff168173ffffffffffffffffffffffffffffffffffffffff16141561077c576040517f08c379a000000000000000000000000000000000000000000000000000000000815260040161077390611ffe565b60405180910390fd5b80915050919050565b60008073ffffffffffffffffffffffffffffffffffffffff168273ffffffffffffffffffffffffffffffffffffffff1614156107f6576040517f08c379a00000000000000000000000000000000000000000000000000000000081526004016107ed90611fde565b60405180910390fd5b600360008373ffffffffffffffffffffffffffffffffffffffff1673ffffffffffffffffffffffffffffffffffffffff168152602001908152602001600020549050919050565b60606001805461084c90612303565b80601f016020809104026020016040519081016040528092919081815260200182805461087890612303565b80156108c55780601f1061089a576101008083540402835291602001916108c5565b820191906000526020600020905b8154815290600101906020018083116108a857829003601f168201915b5050505050905090565b600660009054906101000a900473ffffffffffffffffffffffffffffffffffffffff1673ffffffffffffffffffffffffffffffffffffffff16631959a002836040518263ffffffff1660e01b815260040161092a9190611e5a565b60206040518083038186803b15801561094257600080fd5b505afa158015610956573d6000803e3d6000fd5b505050506040513d601f19601f8201168201806040525081019061097a9190611937565b73ffffffffffffffffffffffffffffffffffffffff163373ffffffffffffffffffffffffffffffffffffffff16146109e7576040517f08c379a00000000000000000000000000000000000000000000000000000000081526004016109de9061207e565b60405180910390fd5b6109f18282611084565b5050565b610a07610a00610c7e565b83836110a2565b5050565b610a1c610a16610c7e565b83610d3f565b610a5b576040517f08c379a0000000000000000000000000000000000000000000000000000000008152600401610a52906120be565b60405180910390fd5b610a678484848461120f565b50505050565b6060610a7882610c12565b610ab7576040517f08c379a0000000000000000000000000000000000000000000000000000000008152600401610aae9061205e565b60405180910390fd5b6000610ac161126b565b90506000815111610ae15760405180602001604052806000815250610b0c565b80610aeb84611282565b604051602001610afc929190611e36565b6040516020818303038152906040525b915050919050565b6000600560008473ffffffffffffffffffffffffffffffffffffffff1673ffffffffffffffffffffffffffffffffffffffff16815260200190815260200160002060008373ffffffffffffffffffffffffffffffffffffffff1673ffffffffffffffffffffffffffffffffffffffff16815260200190815260200160002060009054906101000a900460ff16905092915050565b60007f01ffc9a7000000000000000000000000000000000000000000000000000000007bffffffffffffffffffffffffffffffffffffffffffffffffffffffff1916827bffffffffffffffffffffffffffffffffffffffffffffffffffffffff1916149050919050565b60008073ffffffffffffffffffffffffffffffffffffffff166002600084815260200190815260200160002060009054906101000a900473ffffffffffffffffffffffffffffffffffffffff1673ffffffffffffffffffffffffffffffffffffffff1614159050919050565b600033905090565b816004600083815260200190815260200160002060006101000a81548173ffffffffffffffffffffffffffffffffffffffff021916908373ffffffffffffffffffffffffffffffffffffffff160217905550808273ffffffffffffffffffffffffffffffffffffffff16610cf9836106d3565b73ffffffffffffffffffffffffffffffffffffffff167f8c5be1e5ebec7d5bd14f71427d1e84f3dd0314c0f7b2291e5b200ac8c7c3b92560405160405180910390a45050565b6000610d4a82610c12565b610d89576040517f08c379a0000000000000000000000000000000000000000000000000000000008152600401610d8090611f9e565b60405180910390fd5b6000610d94836106d3565b90508073ffffffffffffffffffffffffffffffffffffffff168473ffffffffffffffffffffffffffffffffffffffff161480610e0357508373ffffffffffffffffffffffffffffffffffffffff16610deb84610490565b73ffffffffffffffffffffffffffffffffffffffff16145b80610e145750610e138185610b14565b5b91505092915050565b8273ffffffffffffffffffffffffffffffffffffffff16610e3d826106d3565b73ffffffffffffffffffffffffffffffffffffffff1614610e93576040517f08c379a0000000000000000000000000000000000000000000000000000000008152600401610e8a90611f1e565b60405180910390fd5b600073ffffffffffffffffffffffffffffffffffffffff168273ffffffffffffffffffffffffffffffffffffffff161415610f03576040517f08c379a0000000000000000000000000000000000000000000000000000000008152600401610efa90611f5e565b60405180910390fd5b610f0e83838361142f565b610f19600082610c86565b6001600360008573ffffffffffffffffffffffffffffffffffffffff1673ffffffffffffffffffffffffffffffffffffffff1681526020019081526020016000206000828254610f699190612219565b925050819055506001600360008473ffffffffffffffffffffffffffffffffffffffff1673ffffffffffffffffffffffffffffffffffffffff1681526020019081526020016000206000828254610fc09190612192565b92505081905550816002600083815260200190815260200160002060006101000a81548173ffffffffffffffffffffffffffffffffffffffff021916908373ffffffffffffffffffffffffffffffffffffffff160217905550808273ffffffffffffffffffffffffffffffffffffffff168473ffffffffffffffffffffffffffffffffffffffff167fddf252ad1be2c89b69c2b068fc378daa952ba7f163c4a11628f55a4df523b3ef60405160405180910390a461107f838383611434565b505050565b61109e828260405180602001604052806000815250611439565b5050565b8173ffffffffffffffffffffffffffffffffffffffff168373ffffffffffffffffffffffffffffffffffffffff161415611111576040517f08c379a000000000000000000000000000000000000000000000000000000000815260040161110890611f7e565b60405180910390fd5b80600560008573ffffffffffffffffffffffffffffffffffffffff1673ffffffffffffffffffffffffffffffffffffffff16815260200190815260200160002060008473ffffffffffffffffffffffffffffffffffffffff1673ffffffffffffffffffffffffffffffffffffffff16815260200190815260200160002060006101000a81548160ff0219169083151502179055508173ffffffffffffffffffffffffffffffffffffffff168373ffffffffffffffffffffffffffffffffffffffff167f17307eab39ab6107e8899845ad3d59bd9653f200f220920489ca2b5937696c31836040516112029190611ec1565b60405180910390a3505050565b61121a848484610e1d565b61122684848484611494565b611265576040517f08c379a000000000000000000000000000000000000000000000000000000000815260040161125c90611efe565b60405180910390fd5b50505050565b606060405180602001604052806000815250905090565b606060008214156112ca576040518060400160405280600181526020017f3000000000000000000000000000000000000000000000000000000000000000815250905061142a565b600082905060005b600082146112fc5780806112e590612366565b915050600a826112f591906121e8565b91506112d2565b60008167ffffffffffffffff81111561133e577f4e487b7100000000000000000000000000000000000000000000000000000000600052604160045260246000fd5b6040519080825280601f01601f1916602001820160405280156113705781602001600182028036833780820191505090505b5090505b60008514611423576001826113899190612219565b9150600a8561139891906123af565b60306113a49190612192565b60f81b8183815181106113e0577f4e487b7100000000000000000000000000000000000000000000000000000000600052603260045260246000fd5b60200101907effffffffffffffffffffffffffffffffffffffffffffffffffffffffffffff1916908160001a905350600a8561141c91906121e8565b9450611374565b8093505050505b919050565b505050565b505050565b611443838361162b565b6114506000848484611494565b61148f576040517f08c379a000000000000000000000000000000000000000000000000000000000815260040161148690611efe565b60405180910390fd5b505050565b60006114b58473ffffffffffffffffffffffffffffffffffffffff16611805565b1561161e578373ffffffffffffffffffffffffffffffffffffffff1663150b7a026114de610c7e565b8786866040518563ffffffff1660e01b81526004016115009493929190611e75565b602060405180830381600087803b15801561151a57600080fd5b505af192505050801561154b57506040513d601f19601f820116820180604052508101906115489190611b07565b60015b6115ce573d806000811461157b576040519150601f19603f3d011682016040523d82523d6000602084013e611580565b606091505b506000815114156115c6576040517f08c379a00000000000000000000000000000000000000000000000000000000081526004016115bd90611efe565b60405180910390fd5b805181602001fd5b63150b7a0260e01b7bffffffffffffffffffffffffffffffffffffffffffffffffffffffff1916817bffffffffffffffffffffffffffffffffffffffffffffffffffffffff191614915050611623565b600190505b949350505050565b600073ffffffffffffffffffffffffffffffffffffffff168273ffffffffffffffffffffffffffffffffffffffff16141561169b576040517f08c379a00000000000000000000000000000000000000000000000000000000081526004016116929061201e565b60405180910390fd5b6116a481610c12565b156116e4576040517f08c379a00000000000000000000000000000000000000000000000000000000081526004016116db90611f3e565b60405180910390fd5b6116f06000838361142f565b6001600360008473ffffffffffffffffffffffffffffffffffffffff1673ffffffffffffffffffffffffffffffffffffffff16815260200190815260200160002060008282546117409190612192565b92505081905550816002600083815260200190815260200160002060006101000a81548173ffffffffffffffffffffffffffffffffffffffff021916908373ffffffffffffffffffffffffffffffffffffffff160217905550808273ffffffffffffffffffffffffffffffffffffffff16600073ffffffffffffffffffffffffffffffffffffffff167fddf252ad1be2c89b69c2b068fc378daa952ba7f163c4a11628f55a4df523b3ef60405160405180910390a461180160008383611434565b5050565b6000808273ffffffffffffffffffffffffffffffffffffffff163b119050919050565b600061183b6118368461211e565b6120f9565b90508281526020810184848401111561185357600080fd5b61185e8482856122c1565b509392505050565b600081359050611875816128dc565b92915050565b60008151905061188a816128dc565b92915050565b60008135905061189f816128f3565b92915050565b6000813590506118b48161290a565b92915050565b6000815190506118c98161290a565b92915050565b600082601f8301126118e057600080fd5b81356118f0848260208601611828565b91505092915050565b60008135905061190881612921565b92915050565b60006020828403121561192057600080fd5b600061192e84828501611866565b91505092915050565b60006020828403121561194957600080fd5b60006119578482850161187b565b91505092915050565b6000806040838503121561197357600080fd5b600061198185828601611866565b925050602061199285828601611866565b9150509250929050565b6000806000606084860312156119b157600080fd5b60006119bf86828701611866565b93505060206119d086828701611866565b92505060406119e1868287016118f9565b9150509250925092565b60008060008060808587031215611a0157600080fd5b6000611a0f87828801611866565b9450506020611a2087828801611866565b9350506040611a31878288016118f9565b925050606085013567ffffffffffffffff811115611a4e57600080fd5b611a5a878288016118cf565b91505092959194509250565b60008060408385031215611a7957600080fd5b6000611a8785828601611866565b9250506020611a9885828601611890565b9150509250929050565b60008060408385031215611ab557600080fd5b6000611ac385828601611866565b9250506020611ad4858286016118f9565b9150509250929050565b600060208284031215611af057600080fd5b6000611afe848285016118a5565b91505092915050565b600060208284031215611b1957600080fd5b6000611b27848285016118ba565b91505092915050565b600060208284031215611b4257600080fd5b6000611b50848285016118f9565b91505092915050565b611b628161224d565b82525050565b611b718161225f565b82525050565b6000611b828261214f565b611b8c8185612165565b9350611b9c8185602086016122d0565b611ba58161249c565b840191505092915050565b6000611bbb8261215a565b611bc58185612176565b9350611bd58185602086016122d0565b611bde8161249c565b840191505092915050565b6000611bf48261215a565b611bfe8185612187565b9350611c0e8185602086016122d0565b80840191505092915050565b6000611c27603283612176565b9150611c32826124ad565b604082019050919050565b6000611c4a602583612176565b9150611c55826124fc565b604082019050919050565b6000611c6d601c83612176565b9150611c788261254b565b602082019050919050565b6000611c90602483612176565b9150611c9b82612574565b604082019050919050565b6000611cb3601983612176565b9150611cbe826125c3565b602082019050919050565b6000611cd6602c83612176565b9150611ce1826125ec565b604082019050919050565b6000611cf9603883612176565b9150611d048261263b565b604082019050919050565b6000611d1c602a83612176565b9150611d278261268a565b604082019050919050565b6000611d3f602983612176565b9150611d4a826126d9565b604082019050919050565b6000611d62602083612176565b9150611d6d82612728565b602082019050919050565b6000611d85602c83612176565b9150611d9082612751565b604082019050919050565b6000611da8602f83612176565b9150611db3826127a0565b604082019050919050565b6000611dcb602c83612176565b9150611dd6826127ef565b604082019050919050565b6000611dee602183612176565b9150611df98261283e565b604082019050919050565b6000611e11603183612176565b9150611e1c8261288d565b604082019050919050565b611e30816122b7565b82525050565b6000611e428285611be9565b9150611e4e8284611be9565b91508190509392505050565b6000602082019050611e6f6000830184611b59565b92915050565b6000608082019050611e8a6000830187611b59565b611e976020830186611b59565b611ea46040830185611e27565b8181036060830152611eb68184611b77565b905095945050505050565b6000602082019050611ed66000830184611b68565b92915050565b60006020820190508181036000830152611ef68184611bb0565b905092915050565b60006020820190508181036000830152611f1781611c1a565b9050919050565b60006020820190508181036000830152611f3781611c3d565b9050919050565b60006020820190508181036000830152611f5781611c60565b9050919050565b60006020820190508181036000830152611f7781611c83565b9050919050565b60006020820190508181036000830152611f9781611ca6565b9050919050565b60006020820190508181036000830152611fb781611cc9565b9050919050565b60006020820190508181036000830152611fd781611cec565b9050919050565b60006020820190508181036000830152611ff781611d0f565b9050919050565b6000602082019050818103600083015261201781611d32565b9050919050565b6000602082019050818103600083015261203781611d55565b9050919050565b6000602082019050818103600083015261205781611d78565b9050919050565b6000602082019050818103600083015261207781611d9b565b9050919050565b6000602082019050818103600083015261209781611dbe565b9050919050565b600060208201905081810360008301526120b781611de1565b9050919050565b600060208201905081810360008301526120d781611e04565b9050919050565b60006020820190506120f36000830184611e27565b92915050565b6000612103612114565b905061210f8282612335565b919050565b6000604051905090565b600067ffffffffffffffff8211156121395761213861246d565b5b6121428261249c565b9050602081019050919050565b600081519050919050565b600081519050919050565b600082825260208201905092915050565b600082825260208201905092915050565b600081905092915050565b600061219d826122b7565b91506121a8836122b7565b9250827fffffffffffffffffffffffffffffffffffffffffffffffffffffffffffffffff038211156121dd576121dc6123e0565b5b828201905092915050565b60006121f3826122b7565b91506121fe836122b7565b92508261220e5761220d61240f565b5b828204905092915050565b6000612224826122b7565b915061222f836122b7565b925082821015612242576122416123e0565b5b828203905092915050565b600061225882612297565b9050919050565b60008115159050919050565b60007fffffffff0000000000000000000000000000000000000000000000000000000082169050919050565b600073ffffffffffffffffffffffffffffffffffffffff82169050919050565b6000819050919050565b82818337600083830152505050565b60005b838110156122ee5780820151818401526020810190506122d3565b838111156122fd576000848401525b50505050565b6000600282049050600182168061231b57607f821691505b6020821081141561232f5761232e61243e565b5b50919050565b61233e8261249c565b810181811067ffffffffffffffff8211171561235d5761235c61246d565b5b80604052505050565b6000612371826122b7565b91507fffffffffffffffffffffffffffffffffffffffffffffffffffffffffffffffff8214156123a4576123a36123e0565b5b600182019050919050565b60006123ba826122b7565b91506123c5836122b7565b9250826123d5576123d461240f565b5b828206905092915050565b7f4e487b7100000000000000000000000000000000000000000000000000000000600052601160045260246000fd5b7f4e487b7100000000000000000000000000000000000000000000000000000000600052601260045260246000fd5b7f4e487b7100000000000000000000000000000000000000000000000000000000600052602260045260246000fd5b7f4e487b7100000000000000000000000000000000000000000000000000000000600052604160045260246000fd5b6000601f19601f8301169050919050565b7f4552433732313a207472616e7366657220746f206e6f6e20455243373231526560008201527f63656976657220696d706c656d656e7465720000000000000000000000000000602082015250565b7f4552433732313a207472616e736665722066726f6d20696e636f72726563742060008201527f6f776e6572000000000000000000000000000000000000000000000000000000602082015250565b7f4552433732313a20746f6b656e20616c7265616479206d696e74656400000000600082015250565b7f4552433732313a207472616e7366657220746f20746865207a65726f2061646460008201527f7265737300000000000000000000000000000000000000000000000000000000602082015250565b7f4552433732313a20617070726f766520746f2063616c6c657200000000000000600082015250565b7f4552433732313a206f70657261746f7220717565727920666f72206e6f6e657860008201527f697374656e7420746f6b656e0000000000000000000000000000000000000000602082015250565b7f4552433732313a20617070726f76652063616c6c6572206973206e6f74206f7760008201527f6e6572206e6f7220617070726f76656420666f7220616c6c0000000000000000602082015250565b7f4552433732313a2062616c616e636520717565727920666f7220746865207a6560008201527f726f206164647265737300000000000000000000000000000000000000000000602082015250565b7f4552433732313a206f776e657220717565727920666f72206e6f6e657869737460008201527f656e7420746f6b656e0000000000000000000000000000000000000000000000602082015250565b7f4552433732313a206d696e7420746f20746865207a65726f2061646472657373600082015250565b7f4552433732313a20617070726f76656420717565727920666f72206e6f6e657860008201527f697374656e7420746f6b656e0000000000000000000000000000000000000000602082015250565b7f4552433732314d657461646174613a2055524920717565727920666f72206e6f60008201527f6e6578697374656e7420746f6b656e0000000000000000000000000000000000602082015250565b7f4e6f207469656e65207065726d69736f73207061726120656a6563757461722060008201527f657374612066756e63696f6e0000000000000000000000000000000000000000602082015250565b7f4552433732313a20617070726f76616c20746f2063757272656e74206f776e6560008201527f7200000000000000000000000000000000000000000000000000000000000000602082015250565b7f4552433732313a207472616e736665722063616c6c6572206973206e6f74206f60008201527f776e6572206e6f7220617070726f766564000000000000000000000000000000602082015250565b6128e58161224d565b81146128f057600080fd5b50565b6128fc8161225f565b811461290757600080fd5b50565b6129138161226b565b811461291e57600080fd5b50565b61292a816122b7565b811461293557600080fd5b5056fea2646970667358221220e0cc9674b237ed8be86a2ebe703c1b43d8010fbb9c2738adcda349e7c89bf24564736f6c63430008040033",
  "immutableReferences": {},
  "source": "// SPDX-License-Identifier: MIT\r\npragma solidity ^0.8.4;\r\n\r\nimport \"@openzeppelin/contracts/token/ERC20/ERC20.sol\";\r\nimport \"@openzeppelin/contracts/token/ERC721/ERC721.sol\";\r\nimport \"@openzeppelin/contracts/access/Ownable.sol\";\r\n\r\ncontract Loteria is ERC20, Ownable {\r\n\r\n   //=======================================\r\n   // Gestin de los tokens\r\n   //=======================================\r\n\r\n   // Direccin del contrato NFT del proyecto\r\n   address public nft;\r\n\r\n   constructor() ERC20(\"Loteria\", \"LAP\") {\r\n      _mint(address(this), 1000);\r\n      nft = address(new mainERC721());\r\n   }\r\n\r\n   // Ganador del premio de la loteria\r\n   address public ganador;\r\n\r\n   // Registro del usuario\r\n   mapping(address => address) public usuarioContract;\r\n\r\n   // Precio de los tokens\r\n   function precioTokens(uint256 _numTokens) internal pure returns (uint256) {\r\n      return _numTokens * (1 ether);\r\n   }\r\n\r\n   // visualizacin del balance de tokens ERC20 de un usuario\r\n   function balanceTokens(address _account) public view returns (uint256) {\r\n       return balanceOf(_account);\r\n   }\r\n\r\n   // visualizacin del balance de tokens ERC20 del smartcontract\r\n   function balanceTokensSC() public view returns (uint256) {\r\n       return balanceOf(address(this));\r\n   }\r\n\r\n   // Visualizacin del balance de ethers del Smart Contract\r\n   // 1 ether -> 10^18\r\n   function balanceEthersSC() public view returns (uint256) {\r\n       return address(this).balance / 10**18;\r\n   }\r\n\r\n   function mint(uint256 _numTokens) public onlyOwner() {\r\n       _mint(address(this), _numTokens);\r\n   }\r\n\r\n   // Registro de usuarios\r\n   function registrar() internal {\r\n      address addrPersonalContract = address(new BoletosNFTs(msg.sender, address(this), nft));\r\n      usuarioContract[msg.sender] = addrPersonalContract;\r\n   }\r\n\r\n   // Informacin de un usuario\r\n   function userInfo(address _account) public view returns (address) {\r\n       return usuarioContract[_account];\r\n   }\r\n\r\n   // compra de tokens ERC20\r\n   function compraTokens(uint256 _numTokens) public payable {\r\n       if (usuarioContract[msg.sender] == address(0)) {\r\n           registrar();\r\n       }\r\n       // Establecimiento del coste de los tokens a comprar\r\n       uint256 coste = precioTokens(_numTokens);\r\n       // Evaluacin del dinero que el cliente para por los tokens\r\n       require(msg.value >= coste, \"Compra menos tokens o paga con mas ethers\");\r\n       // Obtencin del nmero de tokens disponibles\r\n       uint256 balanceTokensDisponibles = balanceTokensSC();\r\n       require(_numTokens <= balanceTokensDisponibles, \"Compra un numero menor de tokens\");\r\n       // Devolucin del dinero sobrante\r\n       uint256 returnValue = msg.value - coste;\r\n       // El Smart contract devuelve la cantidad restante\r\n       payable(msg.sender).transfer(returnValue);\r\n       // Envo de los tokens al cliente/usuario\r\n       _transfer(address(this), msg.sender, _numTokens);\r\n   }\r\n\r\n   // devolucin de tokens al Smart Contract\r\n   function devolverTokens(uint _numTokens) public payable {\r\n       // El numero de tokens debe ser mayor a 0\r\n       require(_numTokens > 0, \"Necesitas devolver un numero de tokens mayor a 0\");\r\n       // el usuario debe acreditar tener los tokens que quiere devolver\r\n       require(_numTokens <= balanceTokens(msg.sender), \"No tienes los tokens que deseas devolver\");\r\n       // El usuario transfiere los tokens al smart contract\r\n       _transfer(msg.sender, address(this), _numTokens);\r\n       // El smart contract enva los ethers al usuario\r\n       payable(msg.sender).transfer(precioTokens(_numTokens));\r\n   }\r\n\r\n   // ====================================================\r\n   // Gestin de la lotera\r\n   // ====================================================\r\n\r\n   // Precio del boleto de lotera (en tokens ERC20)\r\n   uint public precioBoleto = 5;\r\n   // Relacin: persona que compra los boletos --> el nmero de los boletos\r\n   mapping(address => uint[]) addressPersonaBoletos;\r\n   // Relacin: boleto => ganador\r\n   mapping(uint => address) ADNBoleto;\r\n   // Numero aleatorio\r\n   uint randNonce = 0;\r\n   // Boletos de la lotera comprados\r\n   uint[] boletosComprados;\r\n\r\n   // compra de boletos de lotera\r\n   function comprarBoleto(uint _numBoletos) public {\r\n       uint256 precioTotal = _numBoletos * precioBoleto;\r\n       require(precioTotal <= balanceTokens(msg.sender), \"No tienes tokens suficientes\");\r\n       _transfer(msg.sender, address(this), precioTotal);\r\n       _generarBoletoAleatorio(_numBoletos);      \r\n   }\r\n\r\n   /* En random se genera aleatoriamente un nmero de lotera entre 0 y 9999.\r\n      A continuacin se guarda en la lista de boletos comprados, y tambin en la lista de\r\n      boletos comprados por el usuario. Finalmente se genera el token NFT correspondiente al boleto\r\n   */\r\n   function _generarBoletoAleatorio(uint _numBoletos) private {       \r\n       for (uint i = 0; i < _numBoletos; i++) {\r\n           uint random = uint(keccak256(abi.encodePacked(block.timestamp, msg.sender, randNonce))) % 10000;\r\n           randNonce++;    \r\n           addressPersonaBoletos[msg.sender].push(random);\r\n           boletosComprados.push(random);\r\n           ADNBoleto[random] = msg.sender;\r\n           BoletosNFTs(usuarioContract[msg.sender]).mintBoleto(msg.sender, random);       \r\n       }       \r\n   }\r\n\r\n   function viewBoletos(address _owner) public view returns(uint[] memory) {\r\n      return addressPersonaBoletos[_owner];\r\n   }\r\n\r\n   // Generacin del ganador de la lotera\r\n   function generarGanador() public onlyOwner {\r\n       uint longitud = boletosComprados.length;\r\n       // Verificacin de la compra de mas de 1 boleto\r\n       require(longitud > 0, \"No hay boletos comprados\");       \r\n       // Eleccin aleatoria de un numero entre: [0-longitud]\r\n       uint random = uint(uint(keccak256(abi.encodePacked(block.timestamp))) % longitud);\r\n       // Seleccin del nmero aleatorio\r\n       uint eleccion = boletosComprados[random];\r\n       ganador = ADNBoleto[eleccion];\r\n       // Envo del 95% del premio de lotera al ganador\r\n       payable(ganador).transfer(address(this).balance * 95 / 100);\r\n       // Envo del 5% del premio de lotera al owner\r\n       payable(owner()).transfer(address(this).balance * 5 / 100);\r\n   }\r\n}\r\n\r\n// Contrato principal de gestin de los tokens NFT\r\ncontract mainERC721 is ERC721 {\r\n\r\n    address public direccionLoteria;\r\n\r\n    constructor() ERC721(\"Loteria\", \"STE\") {\r\n        direccionLoteria = msg.sender;\r\n    }\r\n\r\n    // Creacin de NFTs\r\n    function safeMint(address _owner, uint256 _idBoleto) public {        \r\n        require(msg.sender == Loteria(direccionLoteria).userInfo(_owner), \"No tiene permisos para ejecutar esta funcion\");\r\n        _safeMint(_owner, _idBoleto);\r\n    }\r\n}\r\n\r\ncontract BoletosNFTs {\r\n\r\n    // Datos relevantes del propietario\r\n    struct Owner {\r\n       address direccionPropietario;\r\n       address contratoPadre;\r\n       address contratoNFT;\r\n       address contratoUsuario;\r\n    }\r\n    Owner public propietario;\r\n\r\n    constructor(address _owner, address _mainContract, address _nftContract) {\r\n       propietario = Owner(_owner, _mainContract, _nftContract, address(this));\r\n    }\r\n\r\n    // conversin de los nmeros de los boletos de lotera\r\n    function mintBoleto(address _propietario, uint _boleto) public {\r\n        require(propietario.contratoPadre == msg.sender, \"No tiene permisos para ejecutar esta funcion\");\r\n        mainERC721(propietario.contratoNFT).safeMint(_propietario, _boleto);\r\n    }\r\n}",
  "sourcePath": "C:\\Users\\Antonio\\Documents\\cursos_udemy\\Blockchain\\Bootcamp Blockchain\\Seccion29-Dapp-Loteria\\loteria-DApp-react\\src\\contracts\\loteria.sol",
  "compiler": {
    "name": "solc",
    "version": "0.8.4+commit.c7e474f2.Emscripten.clang"
  },
  "schemaVersion": "3.4.7",
  "updatedAt": "2023-04-10T19:33:54.479Z",
  "networkType": "ethereum",
  "devdoc": {
    "kind": "dev",
    "methods": {
      "allowance(address,address)": {
        "details": "See {IERC20-allowance}."
      },
      "approve(address,uint256)": {
        "details": "See {IERC20-approve}. NOTE: If `amount` is the maximum `uint256`, the allowance is not updated on `transferFrom`. This is semantically equivalent to an infinite approval. Requirements: - `spender` cannot be the zero address."
      },
      "balanceOf(address)": {
        "details": "See {IERC20-balanceOf}."
      },
      "decimals()": {
        "details": "Returns the number of decimals used to get its user representation. For example, if `decimals` equals `2`, a balance of `505` tokens should be displayed to a user as `5.05` (`505 / 10 ** 2`). Tokens usually opt for a value of 18, imitating the relationship between Ether and Wei. This is the value {ERC20} uses, unless this function is overridden; NOTE: This information is only used for _display_ purposes: it in no way affects any of the arithmetic of the contract, including {IERC20-balanceOf} and {IERC20-transfer}."
      },
      "decreaseAllowance(address,uint256)": {
        "details": "Atomically decreases the allowance granted to `spender` by the caller. This is an alternative to {approve} that can be used as a mitigation for problems described in {IERC20-approve}. Emits an {Approval} event indicating the updated allowance. Requirements: - `spender` cannot be the zero address. - `spender` must have allowance for the caller of at least `subtractedValue`."
      },
      "increaseAllowance(address,uint256)": {
        "details": "Atomically increases the allowance granted to `spender` by the caller. This is an alternative to {approve} that can be used as a mitigation for problems described in {IERC20-approve}. Emits an {Approval} event indicating the updated allowance. Requirements: - `spender` cannot be the zero address."
      },
      "name()": {
        "details": "Returns the name of the token."
      },
      "owner()": {
        "details": "Returns the address of the current owner."
      },
      "renounceOwnership()": {
        "details": "Leaves the contract without owner. It will not be possible to call `onlyOwner` functions anymore. Can only be called by the current owner. NOTE: Renouncing ownership will leave the contract without an owner, thereby removing any functionality that is only available to the owner."
      },
      "symbol()": {
        "details": "Returns the symbol of the token, usually a shorter version of the name."
      },
      "totalSupply()": {
        "details": "See {IERC20-totalSupply}."
      },
      "transfer(address,uint256)": {
        "details": "See {IERC20-transfer}. Requirements: - `to` cannot be the zero address. - the caller must have a balance of at least `amount`."
      },
      "transferFrom(address,address,uint256)": {
        "details": "See {IERC20-transferFrom}. Emits an {Approval} event indicating the updated allowance. This is not required by the EIP. See the note at the beginning of {ERC20}. NOTE: Does not update the allowance if the current allowance is the maximum `uint256`. Requirements: - `from` and `to` cannot be the zero address. - `from` must have a balance of at least `amount`. - the caller must have allowance for ``from``'s tokens of at least `amount`."
      },
      "transferOwnership(address)": {
        "details": "Transfers ownership of the contract to a new account (`newOwner`). Can only be called by the current owner."
      }
    },
    "version": 1
  },
  "userdoc": {
    "kind": "user",
    "methods": {},
    "version": 1
  }
}